{
  "contractName": "Exchange",
  "abi": [
    {
      "inputs": [
        {
          "internalType": "contract Token",
          "name": "_token",
          "type": "address"
        }
      ],
      "stateMutability": "nonpayable",
      "type": "constructor"
    },
    {
      "anonymous": false,
      "inputs": [
        {
          "indexed": true,
          "internalType": "address",
          "name": "user",
          "type": "address"
        },
        {
          "indexed": false,
          "internalType": "uint256",
          "name": "amount",
          "type": "uint256"
        },
        {
          "indexed": false,
          "internalType": "uint256",
          "name": "timeStart",
          "type": "uint256"
        }
      ],
      "name": "Deposit",
      "type": "event"
    },
    {
      "anonymous": false,
      "inputs": [
        {
          "indexed": true,
          "internalType": "address",
          "name": "user",
          "type": "address"
        },
        {
          "indexed": false,
          "internalType": "uint256",
          "name": "etherAmount",
          "type": "uint256"
        },
        {
          "indexed": false,
          "internalType": "uint256",
          "name": "depositTime",
          "type": "uint256"
        },
        {
          "indexed": false,
          "internalType": "uint256",
          "name": "interest",
          "type": "uint256"
        }
      ],
      "name": "Withdraw",
      "type": "event"
    },
    {
      "inputs": [
        {
          "internalType": "address",
          "name": "",
          "type": "address"
        }
      ],
      "name": "depositStart",
      "outputs": [
        {
          "internalType": "uint256",
          "name": "",
          "type": "uint256"
        }
      ],
      "stateMutability": "view",
      "type": "function",
      "constant": true
    },
    {
      "inputs": [
        {
          "internalType": "address",
          "name": "",
          "type": "address"
        }
      ],
      "name": "etherBalanceOf",
      "outputs": [
        {
          "internalType": "uint256",
          "name": "",
          "type": "uint256"
        }
      ],
      "stateMutability": "view",
      "type": "function",
      "constant": true
    },
    {
      "inputs": [
        {
          "internalType": "address",
          "name": "",
          "type": "address"
        }
      ],
      "name": "isDeposited",
      "outputs": [
        {
          "internalType": "bool",
          "name": "",
          "type": "bool"
        }
      ],
      "stateMutability": "view",
      "type": "function",
      "constant": true
    },
    {
      "inputs": [],
      "name": "deposit",
      "outputs": [],
      "stateMutability": "payable",
      "type": "function",
      "payable": true
    },
    {
      "inputs": [],
      "name": "withDraw",
      "outputs": [],
      "stateMutability": "nonpayable",
      "type": "function"
    }
  ],
  "bytecode": "0x608060405234801561001057600080fd5b50604051610d2d380380610d2d8339818101604052810190610032919061008d565b806000806101000a81548173ffffffffffffffffffffffffffffffffffffffff021916908373ffffffffffffffffffffffffffffffffffffffff16021790555050610111565b600081519050610087816100fa565b92915050565b60006020828403121561009f57600080fd5b60006100ad84828501610078565b91505092915050565b60006100c1826100da565b9050919050565b60006100d3826100b6565b9050919050565b600073ffffffffffffffffffffffffffffffffffffffff82169050919050565b610103816100c8565b811461010e57600080fd5b50565b610c0d806101206000396000f3fe60806040526004361061004a5760003560e01c80630fdb1c101461004f578063179fc99f1461006657806373732024146100a3578063d0e30db0146100e0578063ff87930a146100ea575b600080fd5b34801561005b57600080fd5b50610064610127565b005b34801561007257600080fd5b5061008d60048036038101906100889190610799565b610491565b60405161009a9190610979565b60405180910390f35b3480156100af57600080fd5b506100ca60048036038101906100c59190610799565b6104a9565b6040516100d791906108fe565b60405180910390f35b6100e86104c9565b005b3480156100f657600080fd5b50610111600480360381019061010c9190610799565b61076c565b60405161011e9190610979565b60405180910390f35b60011515600360003373ffffffffffffffffffffffffffffffffffffffff1673ffffffffffffffffffffffffffffffffffffffff16815260200190815260200160002060009054906101000a900460ff161515146101ba576040517f08c379a00000000000000000000000000000000000000000000000000000000081526004016101b190610939565b60405180910390fd5b6000600160003373ffffffffffffffffffffffffffffffffffffffff1673ffffffffffffffffffffffffffffffffffffffff1681526020019081526020016000205490506000600260003373ffffffffffffffffffffffffffffffffffffffff1673ffffffffffffffffffffffffffffffffffffffff168152602001908152602001600020544261024b9190610ae6565b90506000662386f26fc10000836102629190610a5b565b6301e337316102719190610a8c565b9050600082826102819190610a8c565b90503373ffffffffffffffffffffffffffffffffffffffff166108fc859081150290604051600060405180830381858888f193505050501580156102c9573d6000803e3d6000fd5b5060008054906101000a900473ffffffffffffffffffffffffffffffffffffffff1673ffffffffffffffffffffffffffffffffffffffff166340c10f1933836040518363ffffffff1660e01b81526004016103259291906108d5565b600060405180830381600087803b15801561033f57600080fd5b505af1158015610353573d6000803e3d6000fd5b505050506000600260003373ffffffffffffffffffffffffffffffffffffffff1673ffffffffffffffffffffffffffffffffffffffff168152602001908152602001600020819055506000600160003373ffffffffffffffffffffffffffffffffffffffff1673ffffffffffffffffffffffffffffffffffffffff168152602001908152602001600020819055506000600360003373ffffffffffffffffffffffffffffffffffffffff1673ffffffffffffffffffffffffffffffffffffffff16815260200190815260200160002060006101000a81548160ff0219169083151502179055503373ffffffffffffffffffffffffffffffffffffffff167f02f25270a4d87bea75db541cdfe559334a275b4a233520ed6c0a2429667cca94858584604051610483939291906109bd565b60405180910390a250505050565b60016020528060005260406000206000915090505481565b60036020528060005260406000206000915054906101000a900460ff1681565b60001515600360003373ffffffffffffffffffffffffffffffffffffffff1673ffffffffffffffffffffffffffffffffffffffff16815260200190815260200160002060009054906101000a900460ff1615151461055c576040517f08c379a000000000000000000000000000000000000000000000000000000000815260040161055390610959565b60405180910390fd5b662386f26fc100003410156105a6576040517f08c379a000000000000000000000000000000000000000000000000000000000815260040161059d90610919565b60405180910390fd5b34600160003373ffffffffffffffffffffffffffffffffffffffff1673ffffffffffffffffffffffffffffffffffffffff168152602001908152602001600020546105f19190610a05565b600160003373ffffffffffffffffffffffffffffffffffffffff1673ffffffffffffffffffffffffffffffffffffffff1681526020019081526020016000208190555042600260003373ffffffffffffffffffffffffffffffffffffffff1673ffffffffffffffffffffffffffffffffffffffff1681526020019081526020016000205461067f9190610a05565b600260003373ffffffffffffffffffffffffffffffffffffffff1673ffffffffffffffffffffffffffffffffffffffff168152602001908152602001600020819055506001600360003373ffffffffffffffffffffffffffffffffffffffff1673ffffffffffffffffffffffffffffffffffffffff16815260200190815260200160002060006101000a81548160ff0219169083151502179055503373ffffffffffffffffffffffffffffffffffffffff167f90890809c654f11d6e72a28fa60149770a0d11ec6c92319d6ceb2bb0a4ea1a153442604051610762929190610994565b60405180910390a2565b60026020528060005260406000206000915090505481565b60008135905061079381610bc0565b92915050565b6000602082840312156107ab57600080fd5b60006107b984828501610784565b91505092915050565b6107cb81610b1a565b82525050565b6107da81610b2c565b82525050565b60006107ed6024836109f4565b91507f4572726f722c206465706f736974206d757374206265203e3d20302e3031206560008301527f74686572000000000000000000000000000000000000000000000000000000006020830152604082019050919050565b6000610853601a836109f4565b91507f4572726f722c206e6f2070726576696f7573206465706f7369740000000000006000830152602082019050919050565b6000610893601d836109f4565b91507f4572726f722c206465706f73697420616c7265616479206163746976650000006000830152602082019050919050565b6108cf81610b58565b82525050565b60006040820190506108ea60008301856107c2565b6108f760208301846108c6565b9392505050565b600060208201905061091360008301846107d1565b92915050565b60006020820190508181036000830152610932816107e0565b9050919050565b6000602082019050818103600083015261095281610846565b9050919050565b6000602082019050818103600083015261097281610886565b9050919050565b600060208201905061098e60008301846108c6565b92915050565b60006040820190506109a960008301856108c6565b6109b660208301846108c6565b9392505050565b60006060820190506109d260008301866108c6565b6109df60208301856108c6565b6109ec60408301846108c6565b949350505050565b600082825260208201905092915050565b6000610a1082610b58565b9150610a1b83610b58565b9250827fffffffffffffffffffffffffffffffffffffffffffffffffffffffffffffffff03821115610a5057610a4f610b62565b5b828201905092915050565b6000610a6682610b58565b9150610a7183610b58565b925082610a8157610a80610b91565b5b828204905092915050565b6000610a9782610b58565b9150610aa283610b58565b9250817fffffffffffffffffffffffffffffffffffffffffffffffffffffffffffffffff0483118215151615610adb57610ada610b62565b5b828202905092915050565b6000610af182610b58565b9150610afc83610b58565b925082821015610b0f57610b0e610b62565b5b828203905092915050565b6000610b2582610b38565b9050919050565b60008115159050919050565b600073ffffffffffffffffffffffffffffffffffffffff82169050919050565b6000819050919050565b7f4e487b7100000000000000000000000000000000000000000000000000000000600052601160045260246000fd5b7f4e487b7100000000000000000000000000000000000000000000000000000000600052601260045260246000fd5b610bc981610b1a565b8114610bd457600080fd5b5056fea26469706673582212204e605119b97aa6f9f0c27774c5e097dbf4f076b1391210c5bd8a166616cb49a664736f6c63430008000033",
  "immutableReferences": {},
  "source": "// SPDX-License-Identifier: MIT\npragma solidity ^0.8.0;\n\nimport \"./Token.sol\";\n\ncontract Exchange {\n\n  Token private token;\n\n  mapping(address => uint) public etherBalanceOf;\n  mapping(address =>uint) public depositStart;\n  mapping(address => bool) public isDeposited;\n\n  event Deposit(address indexed user, uint amount, uint timeStart);\n  event Withdraw(address indexed user, uint etherAmount, uint depositTime, uint interest);\n\n  constructor(Token _token) public {\n    token = _token;\n  }\n\n  function deposit() payable public {\n    // Controllo ch il deposito non sia attivo\n    require(isDeposited[msg.sender] == false, \"Error, deposit already active\");\n    // Controlle che la cifra sia superiore ad un certo valore\n    require(msg.value>=1e16, \"Error, deposit must be >= 0.01 ether\");\n\n    etherBalanceOf[msg.sender] = etherBalanceOf[msg.sender]+msg.value;\n    depositStart[msg.sender] = depositStart[msg.sender]+block.timestamp;\n\n    isDeposited[msg.sender] = true;\n    emit Deposit(msg.sender, msg.value, block.timestamp);\n  }\n\n  function withDraw() public {\n    //Controllo se il deposito  attivo\n    require(isDeposited[msg.sender]==true, 'Error, no previous deposit');\n    \n    // assegno il deposito dell'utente in una variabile per l'evento\n    uint userBalance = etherBalanceOf[msg.sender];\n\n    // Calcolo il tempo di deposito\n    uint depositTime = block.timestamp - depositStart[msg.sender];\n\n    // Calcolo interesse per secondo e interesse finale\n    //31668017 - interest(10% APY) per second for min. deposit amount (0.01 ETH), cuz:\n    //1e15(10% of 0.01 ETH) / 31577600 (seconds in 365.25 days)\n\n    //(etherBalanceOf[msg.sender] / 1e16) - calc. how much higher interest will be (based on deposit), e.g.:\n    //for min. deposit (0.01 ETH), (etherBalanceOf[msg.sender] / 1e16) = 1 (the same, 31668017/s)\n    //for deposit 0.02 ETH, (etherBalanceOf[msg.sender] / 1e16) = 2 (doubled, (2*31668017)/s)\n    uint interestPerSecond = 31668017 * (userBalance / 1e16);\n    uint interest = interestPerSecond * depositTime;\n\n    // Mando gli ether all'utente\n    payable(msg.sender).transfer(userBalance);\n\n    // Mando il valore in token dell'interesse\n    token.mint(msg.sender, interest);\n\n    // resetto il valore a zero dopo il trasferimento\n    depositStart[msg.sender] = 0;\n    etherBalanceOf[msg.sender] = 0;\n    isDeposited[msg.sender] = false;\n\n    // Emetto evento\n    emit Withdraw(msg.sender, userBalance, depositTime, interest);\n  }\n\n\n}",
  "sourcePath": "/home/alessandra/Progetti/decentralize-exchange/contracts/Exchange.sol",
  "compiler": {
    "name": "solc",
    "version": "0.8.0+commit.c7dfd78e.Emscripten.clang"
  },
  "schemaVersion": "3.3.4",
  "updatedAt": "2021-03-31T15:16:03.626Z",
  "networkType": "ethereum",
  "devdoc": {
    "kind": "dev",
    "methods": {},
    "version": 1
  },
  "userdoc": {
    "kind": "user",
    "methods": {},
    "version": 1
  }
}